{
  "contractName": "Passport",
  "abi": [
    {
      "inputs": [],
      "stateMutability": "nonpayable",
      "type": "constructor"
    },
    {
      "anonymous": false,
      "inputs": [
        {
          "indexed": true,
          "internalType": "address",
          "name": "personAddress",
          "type": "address"
        },
        {
          "indexed": false,
          "internalType": "string",
          "name": "name",
          "type": "string"
        },
        {
          "indexed": false,
          "internalType": "uint256",
          "name": "age",
          "type": "uint256"
        },
        {
          "indexed": false,
          "internalType": "string",
          "name": "nationality",
          "type": "string"
        },
        {
          "indexed": false,
          "internalType": "enum Passport.Role",
          "name": "role",
          "type": "uint8"
        }
      ],
      "name": "PersonAdded",
      "type": "event"
    },
    {
      "inputs": [
        {
          "internalType": "address",
          "name": "",
          "type": "address"
        }
      ],
      "name": "people",
      "outputs": [
        {
          "internalType": "string",
          "name": "name",
          "type": "string"
        },
        {
          "internalType": "uint256",
          "name": "age",
          "type": "uint256"
        },
        {
          "internalType": "string",
          "name": "nationality",
          "type": "string"
        },
        {
          "internalType": "enum Passport.Role",
          "name": "role",
          "type": "uint8"
        },
        {
          "internalType": "address",
          "name": "owner",
          "type": "address"
        }
      ],
      "stateMutability": "view",
      "type": "function",
      "constant": true
    },
    {
      "inputs": [
        {
          "internalType": "string",
          "name": "_name",
          "type": "string"
        },
        {
          "internalType": "uint256",
          "name": "_age",
          "type": "uint256"
        },
        {
          "internalType": "string",
          "name": "_nationality",
          "type": "string"
        },
        {
          "internalType": "enum Passport.Role",
          "name": "_role",
          "type": "uint8"
        }
      ],
      "name": "addPerson",
      "outputs": [],
      "stateMutability": "nonpayable",
      "type": "function"
    },
    {
      "inputs": [
        {
          "internalType": "address",
          "name": "_personAddress",
          "type": "address"
        }
      ],
      "name": "getPerson",
      "outputs": [
        {
          "internalType": "string",
          "name": "",
          "type": "string"
        },
        {
          "internalType": "uint256",
          "name": "",
          "type": "uint256"
        },
        {
          "internalType": "string",
          "name": "",
          "type": "string"
        },
        {
          "internalType": "enum Passport.Role",
          "name": "",
          "type": "uint8"
        }
      ],
      "stateMutability": "view",
      "type": "function",
      "constant": true
    }
  ],
  "bytecode": "0x60806040523480156200001157600080fd5b506040518060a00160405280604051806020016040528060008152508152602001600081526020016040518060200160405280600081525081526020016000600281111562000089577f4e487b7100000000000000000000000000000000000000000000000000000000600052602160045260246000fd5b81526020013373ffffffffffffffffffffffffffffffffffffffff168152506000803373ffffffffffffffffffffffffffffffffffffffff1673ffffffffffffffffffffffffffffffffffffffff16815260200190815260200160002060008201518160000190805190602001906200010492919062000228565b506020820151816001015560408201518160020190805190602001906200012d92919062000228565b5060608201518160030160006101000a81548160ff0219169083600281111562000180577f4e487b7100000000000000000000000000000000000000000000000000000000600052602160045260246000fd5b021790555060808201518160030160016101000a81548173ffffffffffffffffffffffffffffffffffffffff021916908373ffffffffffffffffffffffffffffffffffffffff1602179055509050503373ffffffffffffffffffffffffffffffffffffffff167f75037c961a7ac51faed6c37366af49b0fed28291fb953fa380ebd9c74d34b1d86000806040516200021a92919062000316565b60405180910390a262000470565b8280546200023690620003c5565b90600052602060002090601f0160209004810192826200025a5760008555620002a6565b82601f106200027557805160ff1916838001178555620002a6565b82800160010185558215620002a6579182015b82811115620002a557825182559160200191906001019062000288565b5b509050620002b59190620002b9565b5090565b5b80821115620002d4576000816000905550600101620002ba565b5090565b620002e3816200039d565b82525050565b620002f481620003b1565b82525050565b6000620003096000836200036d565b9150600082019050919050565b600060808201905081810360008301526200033181620002fa565b9050620003426020830185620002e9565b81810360408301526200035581620002fa565b9050620003666060830184620002d8565b9392505050565b600082825260208201905092915050565b60008190506200038e8262000459565b919050565b6000819050919050565b6000620003aa826200037e565b9050919050565b6000620003be8262000393565b9050919050565b60006002820490506001821680620003de57607f821691505b60208210811415620003f557620003f46200042a565b5b50919050565b7f4e487b7100000000000000000000000000000000000000000000000000000000600052602160045260246000fd5b7f4e487b7100000000000000000000000000000000000000000000000000000000600052602260045260246000fd5b600381106200046d576200046c620003fb565b5b50565b61105280620004806000396000f3fe608060405234801561001057600080fd5b50600436106100415760003560e01c806307de9735146100465780633c9baac21461007a578063552d2d5c14610096575b600080fd5b610060600480360381019061005b9190610a24565b6100c9565b604051610071959493929190610cd9565b60405180910390f35b610094600480360381019061008f9190610a4d565b61023c565b005b6100b060048036038101906100ab9190610a24565b6105c8565b6040516100c09493929190610c86565b60405180910390f35b60006020528060005260406000206000915090508060000180546100ec90610efa565b80601f016020809104026020016040519081016040528092919081815260200182805461011890610efa565b80156101655780601f1061013a57610100808354040283529160200191610165565b820191906000526020600020905b81548152906001019060200180831161014857829003601f168201915b50505050509080600101549080600201805461018090610efa565b80601f01602080910402602001604051908101604052809291908181526020018280546101ac90610efa565b80156101f95780601f106101ce576101008083540402835291602001916101f9565b820191906000526020600020905b8154815290600101906020018083116101dc57829003601f168201915b5050505050908060030160009054906101000a900460ff16908060030160019054906101000a900473ffffffffffffffffffffffffffffffffffffffff16905085565b6000845111610280576040517f08c379a000000000000000000000000000000000000000000000000000000000815260040161027790610d5a565b60405180910390fd5b600083116102c3576040517f08c379a00000000000000000000000000000000000000000000000000000000081526004016102ba90610d3a565b60405180910390fd5b6000825111610307576040517f08c379a00000000000000000000000000000000000000000000000000000000081526004016102fe90610d7a565b60405180910390fd5b600073ffffffffffffffffffffffffffffffffffffffff166000803373ffffffffffffffffffffffffffffffffffffffff1673ffffffffffffffffffffffffffffffffffffffff16815260200190815260200160002060030160019054906101000a900473ffffffffffffffffffffffffffffffffffffffff1673ffffffffffffffffffffffffffffffffffffffff16146103d7576040517f08c379a00000000000000000000000000000000000000000000000000000000081526004016103ce90610d9a565b60405180910390fd5b6040518060a0016040528085815260200184815260200183815260200182600281111561042d577f4e487b7100000000000000000000000000000000000000000000000000000000600052602160045260246000fd5b81526020013373ffffffffffffffffffffffffffffffffffffffff168152506000803373ffffffffffffffffffffffffffffffffffffffff1673ffffffffffffffffffffffffffffffffffffffff16815260200190815260200160002060008201518160000190805190602001906104a69291906108da565b506020820151816001015560408201518160020190805190602001906104cd9291906108da565b5060608201518160030160006101000a81548160ff0219169083600281111561051f577f4e487b7100000000000000000000000000000000000000000000000000000000600052602160045260246000fd5b021790555060808201518160030160016101000a81548173ffffffffffffffffffffffffffffffffffffffff021916908373ffffffffffffffffffffffffffffffffffffffff1602179055509050503373ffffffffffffffffffffffffffffffffffffffff167f75037c961a7ac51faed6c37366af49b0fed28291fb953fa380ebd9c74d34b1d8858585856040516105ba9493929190610c86565b60405180910390a250505050565b60606000606060008073ffffffffffffffffffffffffffffffffffffffff166000808773ffffffffffffffffffffffffffffffffffffffff1673ffffffffffffffffffffffffffffffffffffffff16815260200190815260200160002060030160019054906101000a900473ffffffffffffffffffffffffffffffffffffffff1673ffffffffffffffffffffffffffffffffffffffff1614156106a0576040517f08c379a000000000000000000000000000000000000000000000000000000000815260040161069790610dba565b60405180910390fd5b6000808673ffffffffffffffffffffffffffffffffffffffff1673ffffffffffffffffffffffffffffffffffffffff1681526020019081526020016000206000016000808773ffffffffffffffffffffffffffffffffffffffff1673ffffffffffffffffffffffffffffffffffffffff168152602001908152602001600020600101546000808873ffffffffffffffffffffffffffffffffffffffff1673ffffffffffffffffffffffffffffffffffffffff1681526020019081526020016000206002016000808973ffffffffffffffffffffffffffffffffffffffff1673ffffffffffffffffffffffffffffffffffffffff16815260200190815260200160002060030160009054906101000a900460ff168380546107bf90610efa565b80601f01602080910402602001604051908101604052809291908181526020018280546107eb90610efa565b80156108385780601f1061080d57610100808354040283529160200191610838565b820191906000526020600020905b81548152906001019060200180831161081b57829003601f168201915b5050505050935081805461084b90610efa565b80601f016020809104026020016040519081016040528092919081815260200182805461087790610efa565b80156108c45780601f10610899576101008083540402835291602001916108c4565b820191906000526020600020905b8154815290600101906020018083116108a757829003601f168201915b5050505050915093509350935093509193509193565b8280546108e690610efa565b90600052602060002090601f016020900481019282610908576000855561094f565b82601f1061092157805160ff191683800117855561094f565b8280016001018555821561094f579182015b8281111561094e578251825591602001919060010190610933565b5b50905061095c9190610960565b5090565b5b80821115610979576000816000905550600101610961565b5090565b600061099061098b84610e0b565b610dda565b9050828152602081018484840111156109a857600080fd5b6109b3848285610eb8565b509392505050565b6000813590506109ca81610fde565b92915050565b6000813590506109df81610ff5565b92915050565b600082601f8301126109f657600080fd5b8135610a0684826020860161097d565b91505092915050565b600081359050610a1e81611005565b92915050565b600060208284031215610a3657600080fd5b6000610a44848285016109bb565b91505092915050565b60008060008060808587031215610a6357600080fd5b600085013567ffffffffffffffff811115610a7d57600080fd5b610a89878288016109e5565b9450506020610a9a87828801610a0f565b935050604085013567ffffffffffffffff811115610ab757600080fd5b610ac3878288016109e5565b9250506060610ad4878288016109d0565b91505092959194509250565b610ae981610e57565b82525050565b610af881610ea6565b82525050565b6000610b0982610e3b565b610b138185610e46565b9350610b23818560208601610ec7565b610b2c81610fb9565b840191505092915050565b6000610b44601a83610e46565b91507f416765206d7573742062652067726561746572207468616e20300000000000006000830152602082019050919050565b6000610b84601483610e46565b91507f4e616d652063616e6e6f7420626520656d7074790000000000000000000000006000830152602082019050919050565b6000610bc4601b83610e46565b91507f4e6174696f6e616c6974792063616e6e6f7420626520656d70747900000000006000830152602082019050919050565b6000610c04601583610e46565b91507f506572736f6e20616c72656164792065786973747300000000000000000000006000830152602082019050919050565b6000610c44601383610e46565b91507f5573657220646f6573206e6f74206578697374000000000000000000000000006000830152602082019050919050565b610c8081610e9c565b82525050565b60006080820190508181036000830152610ca08187610afe565b9050610caf6020830186610c77565b8181036040830152610cc18185610afe565b9050610cd06060830184610aef565b95945050505050565b600060a0820190508181036000830152610cf38188610afe565b9050610d026020830187610c77565b8181036040830152610d148186610afe565b9050610d236060830185610aef565b610d306080830184610ae0565b9695505050505050565b60006020820190508181036000830152610d5381610b37565b9050919050565b60006020820190508181036000830152610d7381610b77565b9050919050565b60006020820190508181036000830152610d9381610bb7565b9050919050565b60006020820190508181036000830152610db381610bf7565b9050919050565b60006020820190508181036000830152610dd381610c37565b9050919050565b6000604051905081810181811067ffffffffffffffff82111715610e0157610e00610f8a565b5b8060405250919050565b600067ffffffffffffffff821115610e2657610e25610f8a565b5b601f19601f8301169050602081019050919050565b600081519050919050565b600082825260208201905092915050565b6000610e6282610e7c565b9050919050565b6000819050610e7782610fca565b919050565b600073ffffffffffffffffffffffffffffffffffffffff82169050919050565b6000819050919050565b6000610eb182610e69565b9050919050565b82818337600083830152505050565b60005b83811015610ee5578082015181840152602081019050610eca565b83811115610ef4576000848401525b50505050565b60006002820490506001821680610f1257607f821691505b60208210811415610f2657610f25610f5b565b5b50919050565b7f4e487b7100000000000000000000000000000000000000000000000000000000600052602160045260246000fd5b7f4e487b7100000000000000000000000000000000000000000000000000000000600052602260045260246000fd5b7f4e487b7100000000000000000000000000000000000000000000000000000000600052604160045260246000fd5b6000601f19601f8301169050919050565b60038110610fdb57610fda610f2c565b5b50565b610fe781610e57565b8114610ff257600080fd5b50565b6003811061100257600080fd5b50565b61100e81610e9c565b811461101957600080fd5b5056fea2646970667358221220e8b62f62fe582be816e9ff45ab70dd4ec7376a94cd31bef6db1bf6a96204f97964736f6c63430008000033",
  "immutableReferences": {},
  "source": "// SPDX-License-Identifier: MIT\npragma solidity ^0.8.0;\n\ncontract Passport {\n    enum Role { Owner, Moderator, User }\n\n    struct Person {\n        string name;\n        uint256 age;\n        string nationality;\n        Role role;\n        address owner;\n    }\n\n    mapping(address => Person) public people;\n\n    event PersonAdded(address indexed personAddress, string name, uint256 age, string nationality, Role role);\n\n    modifier onlyOwner() {\n        require(msg.sender == people[msg.sender].owner, \"Only the owner can call this function\");\n        _;\n    }\n\n    modifier onlyModerator(address _personAddress) {\n        require(people[_personAddress].role == Role.Moderator, \"Only moderators can call this function\");\n        _;\n    }\n\n    modifier onlyUser(address _personAddress) {\n        require(people[_personAddress].role == Role.User, \"Only users can call this function\");\n        _;\n    }\n\n    constructor() {\n        people[msg.sender] = Person(\"\", 0, \"\", Role.Owner, msg.sender);\n        emit PersonAdded(msg.sender, \"\", 0, \"\", Role.Owner);\n    }\n\n    function addPerson(string memory _name, uint256 _age, string memory _nationality, Role _role) public {\n        require(bytes(_name).length > 0, \"Name cannot be empty\");\n        require(_age > 0, \"Age must be greater than 0\");\n        require(bytes(_nationality).length > 0, \"Nationality cannot be empty\");\n\n        require(people[msg.sender].owner == address(0), \"Person already exists\");\n\n        people[msg.sender] = Person(_name, _age, _nationality, _role, msg.sender);\n\n        emit PersonAdded(msg.sender, _name, _age, _nationality, _role);\n    }\n\nfunction getPerson(address _personAddress) public view returns (string memory, uint256, string memory, Role) {\n    require(people[_personAddress].owner != address(0), \"User does not exist\");\n\n    return (\n        people[_personAddress].name,\n        people[_personAddress].age,\n        people[_personAddress].nationality,\n        people[_personAddress].role\n    );\n}\n}\n",
  "sourcePath": "/Users/maksym/work/b_passport/contracts/Passport.sol",
  "compiler": {
    "name": "solc",
    "version": "0.8.0+commit.c7dfd78e.Emscripten.clang"
  },
  "schemaVersion": "3.4.16",
  "updatedAt": "2023-11-26T21:49:47.425Z",
  "networkType": "ethereum",
  "devdoc": {
    "kind": "dev",
    "methods": {},
    "version": 1
  },
  "userdoc": {
    "kind": "user",
    "methods": {},
    "version": 1
  }
}