{
  "contractName": "Voting",
  "abi": [
    {
      "inputs": [
        {
          "internalType": "address",
          "name": "_passportAddress",
          "type": "address"
        }
      ],
      "stateMutability": "nonpayable",
      "type": "constructor"
    },
    {
      "inputs": [
        {
          "internalType": "uint256",
          "name": "",
          "type": "uint256"
        },
        {
          "internalType": "address",
          "name": "",
          "type": "address"
        }
      ],
      "name": "hasVoted",
      "outputs": [
        {
          "internalType": "bool",
          "name": "",
          "type": "bool"
        }
      ],
      "stateMutability": "view",
      "type": "function",
      "constant": true
    },
    {
      "inputs": [],
      "name": "voteCount",
      "outputs": [
        {
          "internalType": "uint256",
          "name": "",
          "type": "uint256"
        }
      ],
      "stateMutability": "view",
      "type": "function",
      "constant": true
    },
    {
      "inputs": [
        {
          "internalType": "uint256",
          "name": "",
          "type": "uint256"
        }
      ],
      "name": "votes",
      "outputs": [
        {
          "internalType": "address",
          "name": "creator",
          "type": "address"
        },
        {
          "internalType": "string",
          "name": "title",
          "type": "string"
        },
        {
          "internalType": "string",
          "name": "description",
          "type": "string"
        },
        {
          "internalType": "bool",
          "name": "isOpen",
          "type": "bool"
        }
      ],
      "stateMutability": "view",
      "type": "function",
      "constant": true
    },
    {
      "inputs": [
        {
          "internalType": "string",
          "name": "_title",
          "type": "string"
        },
        {
          "internalType": "string",
          "name": "_description",
          "type": "string"
        }
      ],
      "name": "createVote",
      "outputs": [],
      "stateMutability": "nonpayable",
      "type": "function"
    },
    {
      "inputs": [
        {
          "internalType": "uint256",
          "name": "_voteId",
          "type": "uint256"
        }
      ],
      "name": "closeVote",
      "outputs": [],
      "stateMutability": "nonpayable",
      "type": "function"
    },
    {
      "inputs": [
        {
          "internalType": "uint256",
          "name": "_voteId",
          "type": "uint256"
        },
        {
          "internalType": "uint8",
          "name": "_option",
          "type": "uint8"
        }
      ],
      "name": "vote",
      "outputs": [],
      "stateMutability": "nonpayable",
      "type": "function"
    },
    {
      "inputs": [
        {
          "internalType": "uint256",
          "name": "_voteId",
          "type": "uint256"
        }
      ],
      "name": "getVoteDetails",
      "outputs": [
        {
          "internalType": "string",
          "name": "",
          "type": "string"
        },
        {
          "internalType": "string",
          "name": "",
          "type": "string"
        },
        {
          "internalType": "bool",
          "name": "",
          "type": "bool"
        }
      ],
      "stateMutability": "view",
      "type": "function",
      "constant": true
    }
  ],
  "bytecode": "0x60806040523480156200001157600080fd5b5060405162001bfe38038062001bfe833981810160405281019062000037919062000096565b80600260006101000a81548173ffffffffffffffffffffffffffffffffffffffff021916908373ffffffffffffffffffffffffffffffffffffffff1602179055505062000110565b6000815190506200009081620000f6565b92915050565b600060208284031215620000a957600080fd5b6000620000b9848285016200007f565b91505092915050565b6000620000cf82620000d6565b9050919050565b600073ffffffffffffffffffffffffffffffffffffffff82169050919050565b6200010181620000c2565b81146200010d57600080fd5b50565b611ade80620001206000396000f3fe608060405234801561001057600080fd5b506004361061007d5760003560e01c80635df813301161005b5780635df81330146101005780636e48a03514610133578063943e82161461014f578063c63840711461016b5761007d565b80632e57ce5c14610082578063438596321461009e57806354a1b431146100ce575b600080fd5b61009c600480360381019061009791906111c5565b610189565b005b6100b860048036038101906100b391906112ed565b6103c5565b6040516100c591906116ab565b60405180910390f35b6100e860048036038101906100e391906112c4565b6103f4565b6040516100f7939291906116c6565b60405180910390f35b61011a600480360381019061011591906112c4565b61082d565b60405161012a9493929190611658565b60405180910390f35b61014d600480360381019061014891906112c4565b61099a565b005b61016960048036038101906101649190611329565b610c45565b005b610173610fe3565b604051610180919061180b565b60405180910390f35b600080600080600260009054906101000a900473ffffffffffffffffffffffffffffffffffffffff1673ffffffffffffffffffffffffffffffffffffffff1663552d2d5c336040518263ffffffff1660e01b81526004016101ea919061163d565b60006040518083038186803b15801561020257600080fd5b505afa158015610216573d6000803e3d6000fd5b505050506040513d6000823e3d601f19601f8201168201806040525081019061023f9190611231565b935093509350935060016002811115610281577f4e487b7100000000000000000000000000000000000000000000000000000000600052602160045260246000fd5b8160028111156102ba577f4e487b7100000000000000000000000000000000000000000000000000000000600052602160045260246000fd5b146102fa576040517f08c379a00000000000000000000000000000000000000000000000000000000081526004016102f19061174b565b60405180910390fd5b6001600081548092919061030d9061196c565b9190505550600080600060015481526020019081526020016000209050338160000160006101000a81548173ffffffffffffffffffffffffffffffffffffffff021916908373ffffffffffffffffffffffffffffffffffffffff16021790555086816001019080519060200190610385929190610fe9565b508581600201908051906020019061039e929190610fe9565b5060018160040160006101000a81548160ff02191690831515021790555050505050505050565b60036020528160005260406000206020528060005260406000206000915091509054906101000a900460ff1681565b606080600080600085815260200190815260200160002060040160009054906101000a900460ff1661045b576040517f08c379a00000000000000000000000000000000000000000000000000000000081526004016104529061170b565b60405180910390fd5b6000600260009054906101000a900473ffffffffffffffffffffffffffffffffffffffff1673ffffffffffffffffffffffffffffffffffffffff1663552d2d5c336040518263ffffffff1660e01b81526004016104b8919061163d565b60006040518083038186803b1580156104d057600080fd5b505afa1580156104e4573d6000803e3d6000fd5b505050506040513d6000823e3d601f19601f8201168201806040525081019061050d9190611231565b93505050506001600281111561054c577f4e487b7100000000000000000000000000000000000000000000000000000000600052602160045260246000fd5b816002811115610585577f4e487b7100000000000000000000000000000000000000000000000000000000600052602160045260246000fd5b148061060057506002808111156105c5577f4e487b7100000000000000000000000000000000000000000000000000000000600052602160045260246000fd5b8160028111156105fe577f4e487b7100000000000000000000000000000000000000000000000000000000600052602160045260246000fd5b145b8061067b575060006002811115610640577f4e487b7100000000000000000000000000000000000000000000000000000000600052602160045260246000fd5b816002811115610679577f4e487b7100000000000000000000000000000000000000000000000000000000600052602160045260246000fd5b145b6106ba576040517f08c379a00000000000000000000000000000000000000000000000000000000081526004016106b1906117cb565b60405180910390fd5b60008086815260200190815260200160002060010160008087815260200190815260200160002060020160008088815260200190815260200160002060040160009054906101000a900460ff168280546107139061193a565b80601f016020809104026020016040519081016040528092919081815260200182805461073f9061193a565b801561078c5780601f106107615761010080835404028352916020019161078c565b820191906000526020600020905b81548152906001019060200180831161076f57829003601f168201915b5050505050925081805461079f9061193a565b80601f01602080910402602001604051908101604052809291908181526020018280546107cb9061193a565b80156108185780601f106107ed57610100808354040283529160200191610818565b820191906000526020600020905b8154815290600101906020018083116107fb57829003601f168201915b50505050509150935093509350509193909250565b60006020528060005260406000206000915090508060000160009054906101000a900473ffffffffffffffffffffffffffffffffffffffff16908060010180546108769061193a565b80601f01602080910402602001604051908101604052809291908181526020018280546108a29061193a565b80156108ef5780601f106108c4576101008083540402835291602001916108ef565b820191906000526020600020905b8154815290600101906020018083116108d257829003601f168201915b5050505050908060020180546109049061193a565b80601f01602080910402602001604051908101604052809291908181526020018280546109309061193a565b801561097d5780601f106109525761010080835404028352916020019161097d565b820191906000526020600020905b81548152906001019060200180831161096057829003601f168201915b5050505050908060040160009054906101000a900460ff16905084565b60008082815260200190815260200160002060040160009054906101000a900460ff166109fc576040517f08c379a00000000000000000000000000000000000000000000000000000000081526004016109f39061176b565b60405180910390fd5b60008082815260200190815260200160002060000160009054906101000a900473ffffffffffffffffffffffffffffffffffffffff1673ffffffffffffffffffffffffffffffffffffffff163373ffffffffffffffffffffffffffffffffffffffff1614610a9f576040517f08c379a0000000000000000000000000000000000000000000000000000000008152600401610a96906117ab565b60405180910390fd5b600080600080600260009054906101000a900473ffffffffffffffffffffffffffffffffffffffff1673ffffffffffffffffffffffffffffffffffffffff1663552d2d5c336040518263ffffffff1660e01b8152600401610b00919061163d565b60006040518083038186803b158015610b1857600080fd5b505afa158015610b2c573d6000803e3d6000fd5b505050506040513d6000823e3d601f19601f82011682018060405250810190610b559190611231565b935093509350935060016002811115610b97577f4e487b7100000000000000000000000000000000000000000000000000000000600052602160045260246000fd5b816002811115610bd0577f4e487b7100000000000000000000000000000000000000000000000000000000600052602160045260246000fd5b14610c10576040517f08c379a0000000000000000000000000000000000000000000000000000000008152600401610c079061172b565b60405180910390fd5b600080600087815260200190815260200160002060040160006101000a81548160ff0219169083151502179055505050505050565b60008083815260200190815260200160002060040160009054906101000a900460ff16610ca7576040517f08c379a0000000000000000000000000000000000000000000000000000000008152600401610c9e9061170b565b60405180910390fd5b600080600080600260009054906101000a900473ffffffffffffffffffffffffffffffffffffffff1673ffffffffffffffffffffffffffffffffffffffff1663552d2d5c336040518263ffffffff1660e01b8152600401610d08919061163d565b60006040518083038186803b158015610d2057600080fd5b505afa158015610d34573d6000803e3d6000fd5b505050506040513d6000823e3d601f19601f82011682018060405250810190610d5d9190611231565b935093509350935060016002811115610d9f577f4e487b7100000000000000000000000000000000000000000000000000000000600052602160045260246000fd5b816002811115610dd8577f4e487b7100000000000000000000000000000000000000000000000000000000600052602160045260246000fd5b1480610e535750600280811115610e18577f4e487b7100000000000000000000000000000000000000000000000000000000600052602160045260246000fd5b816002811115610e51577f4e487b7100000000000000000000000000000000000000000000000000000000600052602160045260246000fd5b145b610e92576040517f08c379a0000000000000000000000000000000000000000000000000000000008152600401610e899061178b565b60405180910390fd5b6003600087815260200190815260200160002060003373ffffffffffffffffffffffffffffffffffffffff1673ffffffffffffffffffffffffffffffffffffffff16815260200190815260200160002060009054906101000a900460ff1615610f30576040517f08c379a0000000000000000000000000000000000000000000000000000000008152600401610f27906117eb565b60405180910390fd5b60016003600088815260200190815260200160002060003373ffffffffffffffffffffffffffffffffffffffff1673ffffffffffffffffffffffffffffffffffffffff16815260200190815260200160002060006101000a81548160ff02191690831515021790555060008087815260200190815260200160002060030160008660ff1660ff1681526020019081526020016000206000815480929190610fd69061196c565b9190505550505050505050565b60015481565b828054610ff59061193a565b90600052602060002090601f016020900481019282611017576000855561105e565b82601f1061103057805160ff191683800117855561105e565b8280016001018555821561105e579182015b8281111561105d578251825591602001919060010190611042565b5b50905061106b919061106f565b5090565b5b80821115611088576000816000905550600101611070565b5090565b600061109f61109a84611857565b611826565b9050828152602081018484840111156110b757600080fd5b6110c28482856118f8565b509392505050565b60006110dd6110d884611857565b611826565b9050828152602081018484840111156110f557600080fd5b611100848285611907565b509392505050565b60008135905061111781611a53565b92915050565b60008151905061112c81611a6a565b92915050565b600082601f83011261114357600080fd5b813561115384826020860161108c565b91505092915050565b600082601f83011261116d57600080fd5b815161117d8482602086016110ca565b91505092915050565b60008135905061119581611a7a565b92915050565b6000815190506111aa81611a7a565b92915050565b6000813590506111bf81611a91565b92915050565b600080604083850312156111d857600080fd5b600083013567ffffffffffffffff8111156111f257600080fd5b6111fe85828601611132565b925050602083013567ffffffffffffffff81111561121b57600080fd5b61122785828601611132565b9150509250929050565b6000806000806080858703121561124757600080fd5b600085015167ffffffffffffffff81111561126157600080fd5b61126d8782880161115c565b945050602061127e8782880161119b565b935050604085015167ffffffffffffffff81111561129b57600080fd5b6112a78782880161115c565b92505060606112b88782880161111d565b91505092959194509250565b6000602082840312156112d657600080fd5b60006112e484828501611186565b91505092915050565b6000806040838503121561130057600080fd5b600061130e85828601611186565b925050602061131f85828601611108565b9150509250929050565b6000806040838503121561133c57600080fd5b600061134a85828601611186565b925050602061135b858286016111b0565b9150509250929050565b61136e816118a3565b82525050565b61137d816118b5565b82525050565b600061138e82611887565b6113988185611892565b93506113a8818560208601611907565b6113b181611a42565b840191505092915050565b60006113c9600e83611892565b91507f566f746520697320636c6f7365640000000000000000000000000000000000006000830152602082019050919050565b6000611409601f83611892565b91507f4f6e6c79206d6f64657261746f72732063616e20636c6f736520766f746573006000830152602082019050919050565b6000611449602083611892565b91507f4f6e6c79206d6f64657261746f72732063616e2063726561746520766f7465736000830152602082019050919050565b6000611489601683611892565b91507f566f746520697320616c726561647920636c6f736564000000000000000000006000830152602082019050919050565b60006114c9602283611892565b91507f4f6e6c79206d6f64657261746f727320616e642075736572732063616e20766f60008301527f74650000000000000000000000000000000000000000000000000000000000006020830152604082019050919050565b600061152f602383611892565b91507f4f6e6c79207468652063726561746f722063616e20636c6f736520746865207660008301527f6f746500000000000000000000000000000000000000000000000000000000006020830152604082019050919050565b6000611595603583611892565b91507f4f6e6c79207265676973746572656420757365727320616e64206f776e65727360008301527f2063616e2067657420766f74652064657461696c7300000000000000000000006020830152604082019050919050565b60006115fb601683611892565b91507f596f75206861766520616c726561647920766f746564000000000000000000006000830152602082019050919050565b611637816118e1565b82525050565b60006020820190506116526000830184611365565b92915050565b600060808201905061166d6000830187611365565b818103602083015261167f8186611383565b905081810360408301526116938185611383565b90506116a26060830184611374565b95945050505050565b60006020820190506116c06000830184611374565b92915050565b600060608201905081810360008301526116e08186611383565b905081810360208301526116f48185611383565b90506117036040830184611374565b949350505050565b60006020820190508181036000830152611724816113bc565b9050919050565b60006020820190508181036000830152611744816113fc565b9050919050565b600060208201905081810360008301526117648161143c565b9050919050565b600060208201905081810360008301526117848161147c565b9050919050565b600060208201905081810360008301526117a4816114bc565b9050919050565b600060208201905081810360008301526117c481611522565b9050919050565b600060208201905081810360008301526117e481611588565b9050919050565b60006020820190508181036000830152611804816115ee565b9050919050565b6000602082019050611820600083018461162e565b92915050565b6000604051905081810181811067ffffffffffffffff8211171561184d5761184c611a13565b5b8060405250919050565b600067ffffffffffffffff82111561187257611871611a13565b5b601f19601f8301169050602081019050919050565b600081519050919050565b600082825260208201905092915050565b60006118ae826118c1565b9050919050565b60008115159050919050565b600073ffffffffffffffffffffffffffffffffffffffff82169050919050565b6000819050919050565b600060ff82169050919050565b82818337600083830152505050565b60005b8381101561192557808201518184015260208101905061190a565b83811115611934576000848401525b50505050565b6000600282049050600182168061195257607f821691505b60208210811415611966576119656119e4565b5b50919050565b6000611977826118e1565b91507fffffffffffffffffffffffffffffffffffffffffffffffffffffffffffffffff8214156119aa576119a96119b5565b5b600182019050919050565b7f4e487b7100000000000000000000000000000000000000000000000000000000600052601160045260246000fd5b7f4e487b7100000000000000000000000000000000000000000000000000000000600052602260045260246000fd5b7f4e487b7100000000000000000000000000000000000000000000000000000000600052604160045260246000fd5b6000601f19601f8301169050919050565b611a5c816118a3565b8114611a6757600080fd5b50565b60038110611a7757600080fd5b50565b611a83816118e1565b8114611a8e57600080fd5b50565b611a9a816118eb565b8114611aa557600080fd5b5056fea26469706673582212209681cf0bb9d1bb535847ff4db08774d70eb37edd97ca7ebcfb44bf4f08b72b6964736f6c63430008000033",
  "immutableReferences": {},
  "source": "// SPDX-License-Identifier: MIT\npragma solidity ^0.8.0;\n\nimport \"./Passport.sol\";\n\ncontract Voting {\n    enum VoteOption { Option1, Option2, Option3 }\n\n    struct Vote {\n        address creator;\n        string title;\n        string description;\n        mapping(uint8 => uint256) votesCount;\n        bool isOpen;\n    }\n\n    mapping(uint256 => Vote) public votes;\n    uint256 public voteCount;\n\n    Passport passportContract;\n    mapping(uint256 => mapping(address => bool)) public hasVoted;\n\n    constructor(address _passportAddress) {\n        passportContract = Passport(_passportAddress);\n    }\n\n \nfunction createVote(string memory _title, string memory _description) public {\n    (string memory name, uint256 age, string memory nationality, Passport.Role role) = passportContract.getPerson(msg.sender);\n    require(role == Passport.Role.Moderator, \"Only moderators can create votes\");\n\n    voteCount++;\n    Vote storage newVote = votes[voteCount];\n    newVote.creator = msg.sender;\n    newVote.title = _title;\n    newVote.description = _description;\n    newVote.isOpen = true;\n}\n\nfunction closeVote(uint256 _voteId) public {\n    require(votes[_voteId].isOpen, \"Vote is already closed\");\n    require(msg.sender == votes[_voteId].creator, \"Only the creator can close the vote\");\n\n    (string memory name, uint256 age, string memory nationality, Passport.Role role) = passportContract.getPerson(msg.sender);\n    require(role == Passport.Role.Moderator, \"Only moderators can close votes\");\n\n    votes[_voteId].isOpen = false;\n}\n\nfunction vote(uint256 _voteId, uint8 _option) public {\n    require(votes[_voteId].isOpen, \"Vote is closed\");\n\n    (string memory name, uint256 age, string memory nationality, Passport.Role role) = passportContract.getPerson(msg.sender);\n    require(role == Passport.Role.Moderator || role == Passport.Role.User, \"Only moderators and users can vote\"); \n\n    require(!hasVoted[_voteId][msg.sender], \"You have already voted\");\n\n    hasVoted[_voteId][msg.sender] = true;\n    votes[_voteId].votesCount[_option]++;\n}\n\nfunction getVoteDetails(uint256 _voteId) public view returns (string memory, string memory, bool) {\n    require(votes[_voteId].isOpen, \"Vote is closed\");\n\n    (, , , Passport.Role role) = passportContract.getPerson(msg.sender);\n    require(role == Passport.Role.Moderator || role == Passport.Role.User || role == Passport.Role.Owner, \"Only registered users and owners can get vote details\");\n\n    return (votes[_voteId].title, votes[_voteId].description, votes[_voteId].isOpen);\n}\n\n}",
  "sourcePath": "/Users/maksym/work/b_passport/contracts/Voting.sol",
  "compiler": {
    "name": "solc",
    "version": "0.8.0+commit.c7dfd78e.Emscripten.clang"
  },
  "schemaVersion": "3.4.16",
  "updatedAt": "2023-11-26T21:49:47.417Z",
  "networkType": "ethereum",
  "devdoc": {
    "kind": "dev",
    "methods": {},
    "version": 1
  },
  "userdoc": {
    "kind": "user",
    "methods": {},
    "version": 1
  }
}